:020000040000fa
:080000000002040000000000f2
:020000040000fa
:0400080000040000f0
:020000040000fa
:04000c0000040000ec
:020000040000fa
:0400100000040000e8
:020000040000fa
:0400140000040000e4
:020000040000fa
:0400180000040000e0
:020000040000fa
:04001c0000040000dc
:020000040000fa
:0400200000040000d8
:020000040000fa
:0400240000040000d4
:020000040000fa
:0400280000040000d0
:020000040000fa
:04002c0000040000cc
:020000040000fa
:0400300000040000c8
:020000040000fa
:04003400560300006f
:020000040000fa
:0400380000040000c0
:020000040000fa
:04003c0000040000bc
:020000040000fa
:0400400000040000b8
:020000040000fa
:040044008c03000029
:020000040000fa
:04004800bc030000f5
:020000040000fa
:04004c0000040000ac
:020000040000fa
:0400500000040000a8
:020000040000fa
:0400540000040000a4
:020000040000fa
:0400580000040000a0
:020000040000fa
:04005c00000400009c
:020000040000fa
:040060000004000098
:020000040000fa
:040064000004000094
:020000040000fa
:040068000004000090
:020000040000fa
:04006c00000400008c
:020000040000fa
:040070000004000088
:020000040000fa
:04007400c8020000be
:020000040000fa
:040078000004000080
:020000040000fa
:04007c00000400007c
:020000040000fa
:040080000004000078
:020000040000fa
:040084000004000074
:020000040000fa
:040088000004000070
:020000040000fa
:04008c00000400006c
:020000040000fa
:040090000004000068
:020000040000fa
:040094000004000064
:020000040000fa
:040098000004000060
:020000040000fa
:04009c00000400005c
:020000040000fa
:0400a000f003000069
:020000040000fa
:0400a400f80300005d
:020000040000fa
:0400a8000004000050
:020000040000fa
:0400ac00000400004c
:020000040000fa
:0400b0000004000048
:020000040000fa
:0400b4000004000044
:020000040000fa
:0400b8000004000040
:020000040000fa
:0400bc00000400003c
:020000040000fa
:0400c0000004000038
:020000040000fa
:0400c4000004000034
:020000040000fa
:0400c8000004000030
:020000040000fa
:0400cc00000400002c
:020000040000fa
:0400d0000004000028
:020000040000fa
:0400d4000004000024
:020000040000fa
:0400d8000004000020
:020000040000fa
:0400dc00000400001c
:020000040000fa
:0400e0000004000018
:020000040000fa
:0400e4000004000014
:020000040000fa
:0400e8000004000010
:020000040000fa
:0400ec00000400000c
:020000040000fa
:0400f0000004000008
:020000040000fa
:0400f4000004000004
:020000040000fa
:0400f8000004000000
:020000040000fa
:0400fc0000040000fc
:020000040000fa
:0401000000040000f7
:020000040000fa
:0401040000040000f3
:020000040000fa
:0401080000040000ef
:020000040000fa
:04010c0000040000eb
:020000040000fa
:0401100000040000e7
:020000040000fa
:0401140000040000e3
:020000040000fa
:0401180000040000df
:020000040000fa
:04011c0000040000db
:020000040000fa
:0401200000040000d7
:020000040000fa
:0401240000040000d3
:020000040000fa
:0401280000040000cf
:020000040000fa
:04012c0000040000cb
:020000040000fa
:0401300000040000c7
:020000040000fa
:0401340000040000c3
:020000040000fa
:0401380000040000bf
:020000040000fa
:04013c0000040000bb
:020000040000fa
:0401400000040000b7
:020000040000fa
:0401440000040000b3
:020000040000fa
:0401480000040000af
:020000040000fa
:04014c0000040000ab
:020000040000fa
:0401500000040000a7
:020000040000fa
:0401540000040000a3
:020000040000fa
:04015800000400009f
:020000040000fa
:04015c00000400009b
:020000040000fa
:0402080000040000ee
:020000040000fa
:04020c0000040000ea
:020000040000fa
:0402100000040000e6
:020000040000fa
:0402140000040000e2
:020000040000fa
:0402180000040000de
:020000040000fa
:04021c0000040000da
:020000040000fa
:0402200000040000d6
:020000040000fa
:0402240000040000d2
:020000040000fa
:0402280000040000ce
:020000040000fa
:04022c0000040000ca
:020000040000fa
:0402300000040000c6
:020000040000fa
:0402340000040000c2
:020000040000fa
:0402380000040000be
:020000040000fa
:04023c0000040000ba
:020000040000fa
:0402400000040000b6
:020000040000fa
:0402440000040000b2
:020000040000fa
:0402480000040000ae
:020000040000fa
:04024c0000040000aa
:020000040000fa
:0402500000040000a6
:020000040000fa
:0402540000040000a2
:020000040000fa
:04025800000400009e
:020000040000fa
:04025c00000400009a
:020000040000fa
:040260000004000096
:020000040000fa
:040264000004000092
:020000040000fa
:04026800000400008e
:020000040000fa
:04026c00000400008a
:020000040000fa
:040270000004000086
:020000040000fa
:040274000004000082
:020000040000fa
:04027800000400007e
:020000040000fa
:04027c00000400007a
:020000040000fa
:040280000004000076
:020000040000fa
:040284000004000072
:020000040000fa
:04028800000400006e
:020000040000fa
:04028c00000400006a
:020000040000fa
:040290000004000066
:020000040000fa
:040294000004000062
:020000040000fa
:04029800000400005e
:020000040000fa
:04029c00000400005a
:020000040000fa
:0402a0000004000056
:020000040000fa
:0402a4000004000052
:020000040000fa
:0402a800000400004e
:020000040000fa
:0402ac00000400004a
:020000040000fa
:0402b0000004000046
:020000040000fa
:0402b4000004000042
:020000040000fa
:0402b800000400003e
:020000040000fa
:0402bc00000400003a
:020000040000fa
:0402c0000004000036
:020000040000fa
:0402c4000004000032
:020000040000fa
:0402c800000400002e
:020000040000fa
:0402cc00000400002a
:020000040000fa
:0402d0000004000026
:020000040000fa
:0402d4000004000022
:020000040000fa
:0402d800000400001e
:020000040000fa
:0402dc00000400001a
:020000040000fa
:0402e0000004000016
:020000040000fa
:0402e4000004000012
:020000040000fa
:0402e800000400000e
:020000040000fa
:0402ec00000400000a
:020000040000fa
:0402f0000004000006
:020000040000fa
:0402f4000004000002
:020000040000fa
:0402f80000040000fe
:020000040000fa
:0402fc0000040000fa
:020000040000fa
:0403000000040000f5
:020000040000fa
:0403040000040000f1
:020000040000fa
:0403080000040000ed
:020000040000fa
:04030c0000040000e9
:020000040000fa
:0403100000040000e5
:020000040000fa
:0403140000040000e1
:020000040000fa
:0403180000040000dd
:020000040000fa
:04031c0000040000d9
:020000040000fa
:0403200000040000d5
:020000040000fa
:0403240000040000d1
:020000040000fa
:0403280000040000cd
:020000040000fa
:04032c0000040000c9
:020000040000fa
:0403300000040000c5
:020000040000fa
:0403340000040000c1
:020000040000fa
:0403380000040000bd
:020000040000fa
:04033c0000040000b9
:020000040000fa
:0403400000040000b5
:020000040000fa
:0403440000040000b1
:020000040000fa
:0403480000040000ad
:020000040000fa
:04034c0000040000a9
:020000040000fa
:0403500000040000a5
:020000040000fa
:0403540000040000a1
:020000040000fa
:04035800000400009d
:020000040000fa
:04035c000004000099
:020000040000fa
:10040000cf8020000edf20000e01880000000000d9
:10041000000020000000e000020032000001200087
:100420002002880014000700f70007000000e00029
:1004300003003a00c0e52000010020000200370060
:100440000000200001002000810f70000100320038
:1004500014000700000020000000e000020032004d
:100460000000020000000000800d020000000000fb
:100470000040da000000fe004440a900a005200072
:100480000000e0000300320000002000a00188000e
:100490004440a800000006008a1f78008b1f7800e7
:1004a0000000060091018800800478000000eb0045
:1004b0001a003700e284440032a0b4009905ba0063
:1004c000e284440032a0b4009906ba00e2844400f9
:1004d00032a0b4000006eb00476fde00fd07b2005b
:1004e000636ce10003003a00ebff07000000eb0043
:1004f0000a003700606ce10004003a00005deb0088
:100500008b05e900fdff3e00040037006168e10053
:10051000010032000086eb000b00070019c7ba008b
:100520001905ba000e04e00003003a000a00e000da
:10053000e0ff3a0000000600fe07b2009e018800be
:100540008a047800f5ff3700395dba008b05e900b1
:100550000c003200295dba008b05e900080032006a
:100560000c00e00003003a00e284440032a0b40032
:10057000f5ff370019ddba008b05e900faff3a00f4
:100580008904e800e184440032a0b40000000600c1
:100590003600f800809fbe00829fbe00849fbe0090
:1005a000869fbe000200fa009660a9008660a9003e
:1005b00020032000b70207000140fe001016800053
:1005c0007000600000f0a7000000ea000000e900f1
:1005d0004f00de0000407800804078000000eb0013
:1005e000000507000000a20000f0a7000000ea00dc
:1005f0000000e9004f00de00004f78005016800038
:100600007000600000f0a7000000ea000000e900b0
:100610004f00de000040780080407800100020008d
:10062000f00407000000a20000f0a7000000ea00ac
:100630000000e9004f00de00104798001e407800df
:100640000004e000060032001e4090000004e000bc
:1006500003003200206e2800cd0307000b00370096
:100660001e4090000004e00003003200a06f28004c
:10067000c7030700050037001e4078000004e000b3
:1006800002003200d0702800c10307009660a80065
:100690000080fa004f03be004f02be004f01be00b3
:1006a0004f00be003600f90000400600809fbe00eb
:1006b000821f78000000fa008460a90008c8bf000b
:1006c0000004e000100032006116800000202000cd
:1006d0000080600000f0a7000000ea000000e900d0
:1006e0004f00de00004078000080fb0061006000e9
:1006f0004900dd0062168000f1df2f0081006100fb
:1007000001007000601688000080fa004f01780038
:100710004f00be0000400600809fbe00821f780090
:100720000000fa0084e0a90061168000001020009b
:100730000080600000f0a7000000ea000000e9006f
:100740004f00de00004078000080fb006100600088
:100750004800dd0062168000f1ef2f00810061008b
:1007600001007000601688000080fa004f017800d8
:100770004f00be0000400600809fbe00821f780030
:100780000000fa008500a90061168000002020000a
:100790000080600000f0a7000000ea000000e9000f
:1007a0004f00de00004078000080fb006100600028
:1007b0004900dd0062168000f1df2f00810061003a
:1007c000010070006016880011e1a90094e0a90002
:1007d0000080fa004f0178004f00be000040060084
:1007e0000000fa0087c0a9000080fa00004006005f
:1007f0000000fa0087e0a9000080fa00004006002f
:100800000040da000000fe0000000500889fbe00e6
:100810008a9fbe008c1f7800c9000700d0003300fb
:1008200003866c006450e1002e0032006420e10079
:10083000330032006150e1002f0032006120e100fe
:100840003100320085855500eb07b000090020001b
:1008500008042000050037000804440089844c0087
:100860000a0031000603430087834b000001530058
:1008700081815b00f8ff33000203be000800a00086
:100880000804440089844c00f6ff3900c639dd00b5
:100890008301730001003200130020008904d1009d
:1008a0000884d3000998a300050032000800a700bf
:1008b0000300a0008904d1000884d3008b05e80060
:1008c0008904d1000884d3000001eb000281d2002a
:1008d0006000070001f0a1000cf0a70001f0a000eb
:1008e000a80037006420e100aa0032000801be0021
:1008f0000200be00f7ff37006120e100a5003200d2
:100900006000b800f3ff37000000200001f8270066
:10091000f0ff3700839f68000100e00002003d0007
:1009200060001000e08018000300e00002003d00bd
:1009300060011100e0811900cd0007004f00e000c8
:1009400002003b0060001000e0801800000006007c
:100950000001be00650007000470a70003f0a100bd
:100960006509b100160032000d0035006828e1006d
:1009700006003500f0ff2f00f1ff27000300e00024
:1009800013003b00010028000000050000004000ab
:10099000818048008502e900fcff3a00080037002a
:1009a000f88f420002003c008000eb0000000500d0
:1009b0008100d1000080d3008502e800fcff3a00ee
:1009c0000300e00002003b0060001000e08018001f
:1009d000000006000001be00440007000470a700ec
:1009e00003f0a10003f8a30013003a006509b10069
:1009f00010003200090035006928e10002003500ce
:100a0000010028000000050000004000818048002f
:100a10008502e900fcff3a0000000600f88f420062
:100a2000050035008100d1000080d3008502e80078
:100a3000fcff3a00000006008000eb00000005000b
:100a40004f89de0082017800990037006011b800fc
:100a5000a700370081002000618055000b003d0099
:100a60000b00200061fe2f000100e1001d0034009a
:100a700082817100610164008904d1000884d3007f
:100a80000000e800faff3a007100200061006400f5
:100a9000030070000200600009003200610444009d
:100aa000e0844c000988a500050032008b05e800b1
:100ab0006808e10002003a008904d1000884d300ec
:100ac000f20f20000258e10005003d00c75ddd0087
:100ad000f907b20089807500080078000000060060
:100ae0000bf827008b00780000000500c70ade0025
:100af000f107b200f50fb20008003200e1cf42006a
:100b0000020032000170a00024000500810f700077
:100b1000010032000408050044000500810f700048
:100b200002003a00140005008502e90000004000c0
:100b300081c04800fcff3b000170a00024000500bc
:100b40000004be00e9ff07000003be000405be006c
:100b50000200be00e5ff0700844f7500000006009c
:100b60000200be006450e100050036006420e10090
:100b7000020036000968a30001003a000800be0028
:100b80000160a0004f0678004f05be004f04be0074
:100b900000000600f0ff2f00f1ff2700f9ff3700eb
:100ba000889fbe008a9fbe008c1f7800e4ff07006c
:100bb000ebff330003866c006450e1002400320038
:100bc0006420e100270032006150e1002200320081
:100bd0006120e100210032008b854200eb07b1006b
:100be0000134b800003ab8000804420089844a0081
:100bf000013ab8000030b8008880400009014a007e
:100c000004003300000040008180480002014900d8
:100c10008b05e900c909dd00830170000100320085
:100c200013002000c814de004814dd004709de0070
:100c30001200b200c808de000884700085ff0700bb
:100c400001f0a1000cf0a70001f0a000cdff3700db
:100c50006120e100cfff32000801be000200be00ab
:100c6000f7ff37006150e100fcff3a00c9ff370091
:100c70006022b800060220000000d0008180d2006f
:100c80000482d2008582d2000000a000020252003d
:100c900083825a00030031000202420083824a002c
:100ca0000000a1000603e900f3ff3a00000006007f
:100cb000881f7800030478000300e00007003d006f
:100cc00060001000e080180060011900e081190048
:100cd00002003b0001f02d00030037000400070074
:100ce00008f0a70001f0a0004f0478000000060003
:100cf000889fbe008a9fbe000082700004027100bf
:100d000004827100260032000004be000200be0012
:100d10006011b8006b092000950220000182cf000d
:100d20000a0039000541b1000082cf0007003900f8
:100d30000541b1000982cf00040039000541b1002e
:100d40000882cf00010039000541b1000542520080
:100d5000120032000a003b008281710061016400d0
:100d60008100d1000080d3008984d3000884d3009f
:100d70008b05e8000442e800f7ff3a00070037005f
:100d80000804440089844c00000048008180480029
:100d90008b05e9000442e900f9ff3a002dff070046
:100da0004f05be004f04be00000006008000780022
:100db000010178003104e000fdff3a00000051001d
:040dc0000000060029
:020000040000fa
:100dc4000a0d0000426f00007468000020620000f9
:100dd40075740000746f00006e73000020700000d2
:100de4007265000073730000656400002100000058
:100df4000a0d000052420000342f0000434e000050
:100e040031200000707200006573000073650000fb
:100e140064210000000a00000d520000413400006b
:100e24002f4300004e300000207000007265000067
:100e340073730000656400002100000000000000de
:100e4400003f00000001000000000000000000005e
:100e5400803f0000000100000000000000000000ce
:100e6400803f000000000000003f0000000100007f
:040e7400000000007a
:020000040000fa
:100e78000200fa00000f78001e0078000000e00071
:100e88000e0035001e007800e70f50000b003c00f4
:100e98001e00780000407800674060000080fb007a
:100ea800670060004800dd0012068000f18f2f0007
:100eb8008100610001007000100688000080fa00bf
:100ec800000006000200fa00000f78001e007800fb
:100ed80024030700c07228001040780061406000b9
:100ee8000080fb00610060004300dd008208800094
:100ef80071ff2f00810061000100700080088800e8
:100f080081088000f0fc2f000080600080088800c5
:100f1800e072280010407800614060000080fb000b
:100f2800610060000000400082088000d1ff2f00af
:100f3800810061000100700080088800c0722800ec
:100f480010407800614060000080fb006100600094
:100f58004d00dd0082088000f1ff2d008100610056
:100f68000100700080088800c072280010407800d6
:100f7800614060000080fb00610060004600dd0009
:100f880082088000f1fb2f008100610001007000e1
:100f98008008880050002000b5ff07000621ef00f8
:100fa8000080fa00000006000200fa00000f780036
:100fb8001e007800eb020700d0722800104078006d
:100fc800614060000080fb00610060004300dd00bc
:100fd8008208800071ff2f0081006100010070000d
:100fe8008008880081088000f0fc2f0000806000e5
:100ff80080088800e0722800104078006140600096
:101008000080fb0061006000000040008208800052
:10101800d1ff2f0081006100010070008008880066
:10102800c072280010407800614060000080fb001a
:10103800610060004d00dd0082088000f1ff2d0096
:10104800810061000100700080088800c0722800db
:1010580010407800614060000080fb006100600083
:101068004600dd0082088000f1fb2f00810061004e
:101078000100700080088800500020007cff0700f5
:101088000a21ef000080fa00000006000800fa00bc
:10109800889fbe00300798000002200089ff0700e3
:1010a80000d02700000f78000000200001f823007e
:1010b80010079800210798009e007800803e2000c5
:1010c80000017800110009008200d800cf80de00fe
:1010d80059fe07001e019000ae019000aefe070009
:1010e8000002be00a0398400b13984000001be00ae
:1010f8000400be00a8fe07000004be003e009000e9
:101108008000eb004ffe07000001be000800be0093
:10111800a1fe07002dfe0700000078006008880087
:1011280011e1a80094e0a8004f04be000080fa0076
:10113800000006000a00fa00889fbe0040079800d9
:10114800800020005fff070000202100a107200089
:10115800008fbe000000200001f82300200798003f
:10116800310798001e00be0002242400f30020006e
:10117800e6fd070030fe07002e019000be0190003a
:1011880085fe07000002be00a0398400b139840042
:101198000001be000400be007ffe07000004be0080
:1011a8004e0090008000eb0026fe07000001be0004
:1011b8000800be0078fe070004fe07000000780063
:1011c8006008880011e1a80094e0a8004f04be0060
:1011d8000080fa00000006001000fa00889fbe0098
:1011e8006007980071079800800020006eff0700d4
:1011f8000040220041af2400008fbe000000200004
:1012080001f82300200798003107980002402200c7
:10121800439724001e00be007afd07002e019000af
:10122800be0190005cfe07000002be00a0398400e9
:10123800b13984000001be000400be0056fe07005c
:101248000004be006e009000fe009000fdfd070047
:101258000001be000800be004ffe0700bafd0700ef
:1012680040079800510798004e009000de0090005b
:101278004008de0000007800700888004e009000ea
:101288006008880011e1a8009500a8004f04be007e
:101298000080fa00000006000000fa00c802a90059
:1012a800c822a800cc02a800800020008011880075
:1012b800113a8000000027008080600000002600ae
:1012c800808f500003003a00c0002000c011880041
:1012d80010003700113a800000002700808060006d
:1012e80000002500808f500003003a00c000200055
:1012f800c011880007003700113a8000000027005d
:10130800008060000000e00002003a007006200043
:10131800c011880000002a009011880087e0a90009
:1013280091058000f0ff2800808060000000230005
:10133800010070009005880097e0a80087c0a90008
:1013480091058000f08f2f000080600000a0a000b1
:101358009005880097c0a90031e2a8003342a80090
:101368000080fa00000006000400fa00004f780030
:1013780011079800c8ff07000d0037000140fe0064
:1013880001003700000000009111800000202000bb
:10139800008060000000e000f8ff3a001e00fb003b
:1013a800a01188001e0090000000e90010079800b6
:1013b8001e0090000000e000f2ff3a00000000006c
:1013c8009111800000102000008060000000e00003
:1013d800fbff320031e2a9000080fa00000006009d
:1013e8000400fa00100798000040eb00104798002e
:1013f8001100200000c2b300dbff0700110020002d
:1014080000c3b300d8ff07001100200080c7b30055
:10141800d5ff070030c0b300004f78001500370033
:101428001e00fb004200dd009e0090000008de0068
:10143800004078006f406000104798001e40900000
:10144800e94f5000040034001e4090007043b00083
:1014580010479800030037001e4090000043b0007a
:1014680010479800110020001e409000beff0700a2
:101478001e4fe9001e4078000004e000e8ff3d0030
:101488001100200000c2b300b7ff07000000eb0006
:10149800100798000080fa00000006000600fa0015
:1014a80010079800210798000040eb0010479800ab
:1014b8001100200000c2b300abff0700110020009c
:1014c80000c3b300a8ff07001100200080c7b300c5
:1014d800a5ff070070c0b300004f78001b0037005d
:1014e8001e00fb004201dd001e009000ae009000cf
:1014f800820178008301e900030033008100d100f4
:101508000080d300fbff3700004078006f40600088
:10151800104798001e409000e94f50000400340026
:101528001e4090007043b000104798000300370039
:101538001e4090000043b0001047980011002000a2
:101548001e40900088ff07001e4fe9001e407800eb
:101558000004e000e2ff3d001100200000c2b300db
:1015680081ff07006000b800100798002107980065
:101578000080fa00000006000200fa00000f780060
:101588000080fa00000006000400fa001007980026
:101598000000eb00000f7800060037001e009000e6
:1015a8001e00400010407800110020006eff070068
:1015b8001e0fe8001e009000fafd07009e0f500065
:1015c800f6ff31000080fa00000006000200fa0071
:1015d800000f78001e0078000000e0000e003500c3
:1015e8001e007800e70f50000b003c001e0078003a
:1015f80000407800674060000080fb0067006000e2
:101608004800dd0012068000f18f2f008100610084
:1016180001007000100688000080fa000000060033
:101628000200fa00000f78001e0078004d01070044
:1016380021088000f0fc2f0000806000200888004e
:101648006072280010407800614060000080fb0054
:10165800610060000000400022088000d1ff2f00d8
:101668008100610001007000200888004072280095
:1016780010407800614060000080fb00610060005d
:101688004d00dd0022088000f1ff2d00810061007f
:10169800010070002008880040722800104078007f
:1016a800614060000080fb00610060004600dd00d2
:1016b80022088000f1fb2f0081006100010070000a
:1016c8002008880050002000c0ff07000621ef0016
:1016d8000080fa00000006000a00fa00889fbe0099
:1016e8004007980080002000cdff0700002021005f
:1016f800a1072000008fbe000000200001f8230091
:1017080020079800310798001e00be00022424001c
:10171800f30020007dfc0700c7fc07002e019000a5
:10172800be0190001cfd07000002be0000398400c5
:10173800113984000001be000400be0016fd070038
:101748000004be004e0090008000eb00bdfc0700c6
:101758000001be000800be000ffd07009bfc07004b
:10176800000078001008880005e1a8009460a8002f
:101778004f04be000080fa00000006000200fa00d4
:10178800000f78000080fa00000006000000fa0050
:1017980010c0b30008e8b7004019210065fe070033
:1017a8000140fe000868ef004019210061fe0700b3
:1017b8000140fe000080fa00000006000000fa0068
:1017c80010c0b30008e8b7000023200059fe070046
:1017d8000140fe000868ef000023200055fe0700c6
:1017e8000140fe000080fa00000006000000fa0038
:1017f80010c0b30008e8b700002320004dfe070022
:101808000140fe000868ef000023200049fe0700a1
:101818000140fe000080fa00000006000000fa0007
:1018280010c0b30008e8b7000023200041fe0700fd
:101838000140fe000868ef00a06920003dfe070097
:101848000140fe000080fa00000006000000fa00d7
:10185800f2ff0700f1ff0700f0ff0700e3ff0700b2
:10186800e2ff0700e1ff0700e0ff0700dfff0700d6
:10187800eaff0700e9ff0700e8ff0700dbff0700b2
:10188800daff0700d9ff0700d8ff0700d7ff0700d6
:101898000080fa00000006000000fa00bbff070005
:1018a800eaff0700c5ff0700fcff37000400fa0045
:1018b8002047980000408000004f78001e407800c4
:1018c80000404000804078002e40900000c040005a
:1018d800104798002e4090000080fb0000408800d0
:1018e8001e4090000080fb00e10f50000a0032000b
:1018f800e10f500003003c000000e0000c00320043
:101908000d003700e20f500007003200e30f5000cf
:1019180003003200080037001000200007003700dd
:1019280030002000050037002000200003003700a9
:101938000000eb00010037000000eb000080fa0017
:10194800000006000400fa002047980010408000bc
:10195800004f78001e40780000404000804078002a
:101968002e40900000c04000104798002e40900084
:101978000080fb00104088001e4090000080fb00a3
:10198800e10f50000a003200e10f500003003c0054
:101998000000e0000c0032000d003700e20f50009c
:1019a80007003200e30f5000030032000800370040
:1019b8001000200007003700300020000500370025
:1019c80020002000030037000000eb000100370072
:1019d8000000eb000080fa00000006000600fa0094
:1019e80010079800414798001e0090000000e00092
:1019f80003003200e10f50000500320008003700f4
:101a08004e409000a9ff0700000f7800090037003a
:101a18004e409000cbff0700000f7800050037000c
:101a28000000eb00000f780011002000d0c6b300c2
:101a38004dfe07001e0078000080fa000000060036
:101a48000000fa00807328001040780061406000b0
:101a58000080fb004f00dd0042168000f1ff2700e8
:101a68008100610001007000401688009073280012
:101a780010407800614060000080fb004f00dd00ee
:101a8800723a8000f1ff27008100610001007000b8
:101a9800703a8800a0732800104078006140600008
:101aa8000080fb00610060004d00dd00723a80009c
:101ab800f1ff2d008100610001007000703a88007c
:101ac8004f87a900713a8000f00f2f000080600056
:101ad800703a8800413a800000fc2f0000806000c6
:101ae800f001b300403a8800000220001d00070002
:101af8000080fa00000006000000fa00d0ff07008e
:101b08008073280010407800614060000080fb006e
:101b1800610060004800dd0042168000f1ef2f00f0
:101b2800810061000100700040168800b073280031
:101b380010407800614060000080fb004f00dd002d
:101b480002048000f1ff270081006100010070009d
:101b580000048800803e20004cfd07000140fe0084
:101b6800feff37000400fa00100798001e009000de
:101b7800e80f500003003a000040eb00004f7800e7
:101b8800100037009e009000401f2000808f5000fa
:101b980003003a0060c6b300004f78000900370020
:101ba8009e00900000022000808f500003003a0041
:101bb80050c5b300004f78000200370050c5b3008d
:101bc800004f780011028000000e20000100700014
:101bd80010028800213a8000f08f2f0000806000fa
:101be800203a88001e01fb0080072000a109200080
:101bf8003374200080497800814978008249780050
:101c080012002000600420007105200023742000c9
:101c18008049780081497800824978004207a80005
:101c280000000000103a8000610060000000e00041
:101c3800fcff3a0011028000f0f12f0000806000e4
:101c4800100288000080fa00000006000000fa0078
:101c5800c082a8006820a8006000a8000080fa00e0
:101c6800000006000000fa00c882a8006800a8006a
:101c78006020a8000080fa00000006000000fa00ba
:101c8800f2ff0700f7ff07008660a90061058000e2
:101c9800f0ff28008080600000002500010070002f
:101ca800600588009660a8000080fa000000060021
:020000040000fa
:101cb8000008000004000000000000000808000000
:101cc80002000000000000000408000004000000fa
:101cd800000000000a0800000200000000000000e8
:041ce80000000000f8
:020000040000fa
:0200000401f009
:04000000ffff0000fe
:020000040000fa
:0200000401f009
:04000800ffff0000f6
:020000040000fa
:0200000401f009
:04000c0000000000f0
:020000040000fa
:0200000401f009
:040010005300000099
:020000040000fa
:0200000401f009
:0400140040000000a8
:020000040000fa
:0200000401f009
:0400180010000000d4
:020000040000fa
:0200000401f009
:04001c00c20000001e
:020000040000fa
:0200000401f009
:0400200017000000c5
:00000001FF
